{
  "contractName": "CreateDapp",
  "abi": [
    {
      "constant": true,
      "inputs": [
        {
          "name": "",
          "type": "uint256"
        }
      ],
      "name": "Payments",
      "outputs": [
        {
          "name": "user",
          "type": "address"
        },
        {
          "name": "amount",
          "type": "uint256"
        }
      ],
      "payable": false,
      "stateMutability": "view",
      "type": "function"
    },
    {
      "constant": true,
      "inputs": [],
      "name": "Owner",
      "outputs": [
        {
          "name": "",
          "type": "address"
        }
      ],
      "payable": false,
      "stateMutability": "view",
      "type": "function"
    },
    {
      "constant": true,
      "inputs": [],
      "name": "paymentID",
      "outputs": [
        {
          "name": "",
          "type": "uint256"
        }
      ],
      "payable": false,
      "stateMutability": "view",
      "type": "function"
    },
    {
      "inputs": [],
      "payable": false,
      "stateMutability": "nonpayable",
      "type": "constructor"
    },
    {
      "constant": false,
      "inputs": [],
      "name": "makePayment",
      "outputs": [],
      "payable": true,
      "stateMutability": "payable",
      "type": "function"
    },
    {
      "constant": true,
      "inputs": [],
      "name": "fetchPaymentID",
      "outputs": [
        {
          "name": "",
          "type": "uint256"
        }
      ],
      "payable": false,
      "stateMutability": "view",
      "type": "function"
    },
    {
      "constant": true,
      "inputs": [
        {
          "name": "_paymentID",
          "type": "uint256"
        }
      ],
      "name": "fetchPayment",
      "outputs": [
        {
          "name": "user",
          "type": "address"
        },
        {
          "name": "amount",
          "type": "uint256"
        }
      ],
      "payable": false,
      "stateMutability": "view",
      "type": "function"
    },
    {
      "constant": false,
      "inputs": [],
      "name": "emptyBalance",
      "outputs": [],
      "payable": true,
      "stateMutability": "payable",
      "type": "function"
    }
  ],
  "bytecode": "0x60806040526000600360146101000a81548160ff021916908315150217905550600160045534801561003057600080fd5b50336000806101000a81548173ffffffffffffffffffffffffffffffffffffffff021916908373ffffffffffffffffffffffffffffffffffffffff16021790555030600160006101000a81548173ffffffffffffffffffffffffffffffffffffffff021916908373ffffffffffffffffffffffffffffffffffffffff160217905550600160009054906101000a900473ffffffffffffffffffffffffffffffffffffffff16600260006101000a81548173ffffffffffffffffffffffffffffffffffffffff021916908373ffffffffffffffffffffffffffffffffffffffff1602179055506000809054906101000a900473ffffffffffffffffffffffffffffffffffffffff16600360006101000a81548173ffffffffffffffffffffffffffffffffffffffff021916908373ffffffffffffffffffffffffffffffffffffffff1602179055506105f8806101866000396000f3fe6080604052600436106100705760003560e01c8063caa7f43b1161004e578063caa7f43b14610158578063d84ffb4114610183578063d8d79700146101ae578063e8d6f73f146101b857610070565b80632bae8f7b146100755780635a4ff679146100f7578063b4a99a4e14610101575b600080fd5b34801561008157600080fd5b506100ae6004803603602081101561009857600080fd5b810190808035906020019092919050505061023a565b604051808373ffffffffffffffffffffffffffffffffffffffff1673ffffffffffffffffffffffffffffffffffffffff1681526020018281526020019250505060405180910390f35b6100ff61027e565b005b34801561010d57600080fd5b506101166103c2565b604051808273ffffffffffffffffffffffffffffffffffffffff1673ffffffffffffffffffffffffffffffffffffffff16815260200191505060405180910390f35b34801561016457600080fd5b5061016d6103e7565b6040518082815260200191505060405180910390f35b34801561018f57600080fd5b506101986103f1565b6040518082815260200191505060405180910390f35b6101b66103f7565b005b3480156101c457600080fd5b506101f1600480360360208110156101db57600080fd5b81019080803590602001909291905050506104f7565b604051808373ffffffffffffffffffffffffffffffffffffffff1673ffffffffffffffffffffffffffffffffffffffff1681526020018281526020019250505060405180910390f35b60056020528060005260406000206000915090508060000160009054906101000a900473ffffffffffffffffffffffffffffffffffffffff16908060010154905082565b6000809054906101000a900473ffffffffffffffffffffffffffffffffffffffff1673ffffffffffffffffffffffffffffffffffffffff163373ffffffffffffffffffffffffffffffffffffffff1614610340576040517f08c379a00000000000000000000000000000000000000000000000000000000081526004018080602001828103825260148152602001807f556e617574686f72697a65642073656e6465722e00000000000000000000000081525060200191505060405180910390fd5b600360009054906101000a900473ffffffffffffffffffffffffffffffffffffffff1673ffffffffffffffffffffffffffffffffffffffff166108fc3073ffffffffffffffffffffffffffffffffffffffff16319081150290604051600060405180830381858888f193505050501580156103bf573d6000803e3d6000fd5b50565b6000809054906101000a900473ffffffffffffffffffffffffffffffffffffffff1681565b6000600454905090565b60045481565b600034905060405180604001604052803373ffffffffffffffffffffffffffffffffffffffff1681526020018281525060056000600454815260200190815260200160002060008201518160000160006101000a81548173ffffffffffffffffffffffffffffffffffffffff021916908373ffffffffffffffffffffffffffffffffffffffff16021790555060208201518160010155905050600160045401600481905550600260009054906101000a900473ffffffffffffffffffffffffffffffffffffffff1673ffffffffffffffffffffffffffffffffffffffff166108fc349081150290604051600060405180830381858888f193505050505050565b600080600160045403831115610575576040517f08c379a00000000000000000000000000000000000000000000000000000000081526004018080602001828103825260128152602001807f556e646566696e6564207061796d656e742e000000000000000000000000000081525060200191505060405180910390fd5b6005600084815260200190815260200160002060000160009054906101000a900473ffffffffffffffffffffffffffffffffffffffff1660056000858152602001908152602001600020600101549150915091509156fea165627a7a723058200fee1a2f4021e26f167409b7c4d1e0e669cd8641ec680e4f66de25ee5ce4b4240029",
  "source": "pragma solidity ^0.5.8;\r\n\r\ncontract CreateDapp {\r\n\r\n    address public Owner;\r\n    address private Contract;\r\n\r\n    // necessary conversion with solidity 0.5.0 to use address.transfer()\r\n    // more here: https://ethereum.stackexchange.com/questions/66486/type-address-is-not-implicitly-convertible-to-expected-type-address-payable?noredirect=1&lq=1\r\n\r\n    address payable PayContract;\r\n    address payable PayOwner;\r\n    bool private initialized = false;\r\n    uint256 public paymentID = 1;\r\n    \r\n    mapping(uint => Payment) public Payments;\r\n\r\n    struct Payment {\r\n        address user;\r\n        uint amount;\r\n    }\r\n\r\n    constructor() public {\r\n        Owner = msg.sender;\r\n        Contract = address(this);\r\n        PayContract = address(uint160(Contract));\r\n        PayOwner = address(uint160(Owner));\r\n    }\r\n\r\n    function makePayment() public payable {\r\n\r\n        uint amount = msg.value;\r\n\r\n        Payments[paymentID] = Payment(msg.sender, amount);\r\n\r\n        paymentID = paymentID + 1;\r\n\r\n        PayContract.send(msg.value);\r\n    }\r\n\r\n    function fetchPaymentID() public view returns (uint256){\r\n        return paymentID;\r\n    }\r\n\r\n    function fetchPayment(uint _paymentID) public view returns (\r\n        address user,\r\n        uint amount\r\n    ){\r\n        require(_paymentID <= paymentID - 1, 'Undefined payment.');\r\n\r\n        return ( Payments[_paymentID].user, Payments[_paymentID].amount );\r\n    }\r\n\r\n    function emptyBalance() public payable {\r\n\r\n        require(msg.sender == Owner, \"Unauthorized sender.\");\r\n\r\n        PayOwner.transfer(address(this).balance);\r\n    }\r\n\r\n}\r\n\r\n",
  "sourcePath": "/usr/create-dapp/ethereum/contracts/CreateDapp.sol",
  "compiler": {
    "name": "solc",
    "version": "0.5.8+commit.23d335f2.Emscripten.clang"
  },
  "schemaVersion": "3.0.17",
  "updatedAt": "2019-11-01T19:44:59.842Z",
  "networkType": "ethereum",
  "devdoc": {
    "methods": {}
  },
  "userdoc": {
    "methods": {}
  }
}